{
  "contractName": "Election",
  "abi": [
    {
      "constant": true,
      "inputs": [],
      "name": "candidatesCount",
      "outputs": [
        {
          "name": "",
          "type": "uint8"
        }
      ],
      "payable": false,
      "stateMutability": "view",
      "type": "function"
    },
    {
      "constant": true,
      "inputs": [
        {
          "name": "",
          "type": "uint256"
        }
      ],
      "name": "candidates",
      "outputs": [
        {
          "name": "id",
          "type": "uint8"
        },
        {
          "name": "voteCount",
          "type": "uint256"
        },
        {
          "name": "name",
          "type": "string"
        }
      ],
      "payable": false,
      "stateMutability": "view",
      "type": "function"
    },
    {
      "inputs": [],
      "payable": false,
      "stateMutability": "nonpayable",
      "type": "constructor"
    },
    {
      "anonymous": false,
      "inputs": [
        {
          "indexed": true,
          "name": "_candidateId",
          "type": "uint256"
        }
      ],
      "name": "votedEvent",
      "type": "event"
    },
    {
      "constant": false,
      "inputs": [
        {
          "name": "_candidateId",
          "type": "uint8"
        }
      ],
      "name": "vote",
      "outputs": [],
      "payable": false,
      "stateMutability": "nonpayable",
      "type": "function"
    }
  ],
  "bytecode": "0x608060405234801561001057600080fd5b506100556040518060400160405280600b81526020017f43616e646964617465203100000000000000000000000000000000000000000081525061009e60201b60201c565b6100996040518060400160405280600b81526020017f43616e646964617465203200000000000000000000000000000000000000000081525061009e60201b60201c565b610217565b604051806060016040528060018060009054906101000a900460ff160160ff1681526020016000815260200182815250600080600160009054906101000a900460ff1660ff16815260200190815260200160002060008201518160000160006101000a81548160ff021916908360ff160217905550602082015181600101556040820151816002019080519060200190610139929190610172565b509050506001600081819054906101000a900460ff168092919060010191906101000a81548160ff021916908360ff1602179055505050565b828054600181600116156101000203166002900490600052602060002090601f016020900481019282601f106101b357805160ff19168380011785556101e1565b828001600101855582156101e1579182015b828111156101e05782518255916020019190600101906101c5565b5b5090506101ee91906101f2565b5090565b61021491905b808211156102105760008160009055506001016101f8565b5090565b90565b610358806102266000396000f3fe608060405234801561001057600080fd5b50600436106100415760003560e01c80632d35a8a2146100465780633477ee2e1461006a578063b3f98adc14610125575b600080fd5b61004e610156565b604051808260ff1660ff16815260200191505060405180910390f35b6100966004803603602081101561008057600080fd5b8101908080359060200190929190505050610169565b604051808460ff1660ff16815260200183815260200180602001828103825283818151815260200191508051906020019080838360005b838110156100e85780820151818401526020810190506100cd565b50505050905090810190601f1680156101155780820380516001836020036101000a031916815260200191505b5094505050505060405180910390f35b6101546004803603602081101561013b57600080fd5b81019080803560ff169060200190929190505050610238565b005b600160009054906101000a900460ff1681565b60006020528060005260406000206000915090508060000160009054906101000a900460ff1690806001015490806002018054600181600116156101000203166002900480601f01602080910402602001604051908101604052809291908181526020018280546001816001161561010002031660029004801561022e5780601f106102035761010080835404028352916020019161022e565b820191906000526020600020905b81548152906001019060200180831161021157829003601f168201915b5050505050905083565b60008160ff1611801561025f5750600160009054906101000a900460ff1660ff168160ff16105b6102d1576040517f08c379a00000000000000000000000000000000000000000000000000000000081526004018080602001828103825260158152602001807f43616e646964617465206d75737420657869737473000000000000000000000081525060200191505060405180910390fd5b6000808260ff168152602001908152602001600020600101600081548092919060010191905055508060ff167ffff3c900d938d21d0990d786e819f29b8d05c1ef587b462b939609625b684b1660405160405180910390a25056fea165627a7a7230582017a3f8cfe6ceab8e48c7b337fdd93b46797545e9b5f7d567603969d00d19970a0029",
  "source": "pragma solidity ^0.5.8;\r\n\r\ncontract Election {\r\n\r\n    //Model + Store + Fetch + Store candidate count\r\n\r\n    //Model\r\n    //I heard that if we ever want to access its properties... instead of using .id, we have to remember the order\r\n    //then use c[0] to get id for example <- in console and while you are testing in js file\r\n    //Store\r\n    //let's assume that we have 3 candidates, in other normal coding language, if we call the 4th one,\r\n    //it will return a segment memory failed because we exceed the preset limit.\r\n    //But contrast to that, solidity will return a default, blank variable, as if the 4th candidate exists\r\n    //so it will keep looping and looping.\r\n    struct Candidate {\r\n        uint8 id;\r\n        uint voteCount;\r\n        string name;\r\n    }\r\n\r\n    mapping (uint => Candidate) public candidates;\r\n    uint8 public candidatesCount;\r\n\r\n    constructor() public {\r\n        addCandidate(\"Candidate 1\");\r\n        addCandidate(\"Candidate 2\");\r\n    }\r\n\r\n    function addCandidate(string memory _name) private {\r\n        candidates[candidatesCount] = Candidate(candidatesCount + 1, 0, _name);\r\n        candidatesCount++;\r\n    }\r\n\r\n    event votedEvent(uint indexed _candidateId);\r\n\r\n    function vote(uint8 _candidateId) public {\r\n        require(_candidateId > 0 && _candidateId < candidatesCount, \"Candidate must exists\");\r\n        candidates[_candidateId].voteCount++;\r\n        emit votedEvent(_candidateId);\r\n    }\r\n}",
  "sourcePath": "C:/Users/thovi/Documents/High_tech/Blockchain/Solidity_react/Solidity_react_test_1/contracts/Election.sol",
  "compiler": {
    "name": "solc",
    "version": "0.5.8+commit.23d335f2.Emscripten.clang"
  },
  "schemaVersion": "3.0.11",
  "updatedAt": "2019-07-27T11:37:07.931Z",
  "devdoc": {
    "methods": {}
  },
  "userdoc": {
    "methods": {}
  }
}